{
  "contractName": "Ownable",
  "abi": [
    {
      "inputs": [],
      "payable": false,
      "stateMutability": "nonpayable",
      "type": "constructor"
    },
    {
      "anonymous": false,
      "inputs": [
        {
          "indexed": false,
          "internalType": "address",
          "name": "newOwner",
          "type": "address"
        }
      ],
      "name": "OwnershipTransferred",
      "type": "event"
    },
    {
      "constant": true,
      "inputs": [],
      "name": "getOwner",
      "outputs": [
        {
          "internalType": "address",
          "name": "_owner",
          "type": "address"
        }
      ],
      "payable": false,
      "stateMutability": "view",
      "type": "function"
    },
    {
      "constant": false,
      "inputs": [
        {
          "internalType": "address",
          "name": "newOwner",
          "type": "address"
        }
      ],
      "name": "setOwner",
      "outputs": [
        {
          "internalType": "bool",
          "name": "success",
          "type": "bool"
        }
      ],
      "payable": false,
      "stateMutability": "nonpayable",
      "type": "function"
    }
  ],
  "bytecode": "0x608060405234801561001057600080fd5b50600080546001600160a01b031916331790556101f9806100326000396000f3fe608060405234801561001057600080fd5b50600436106100365760003560e01c806313af40351461003b578063893d20e814610075575b600080fd5b6100616004803603602081101561005157600080fd5b50356001600160a01b0316610099565b604080519115158252519081900360200190f35b61007d6101b5565b604080516001600160a01b039092168252519081900360200190f35b600080546001600160a01b031633146100f9576040805162461bcd60e51b815260206004820152601f60248201527f4572726f723a206d73672e73656e646572206d757374206265206f776e657200604482015290519081900360640190fd5b6001600160a01b038216610154576040805162461bcd60e51b815260206004820152601a60248201527f4572726f723a20416464726573732063616e6e6f742062652030000000000000604482015290519081900360640190fd5b604080516001600160a01b038416815290517f04dba622d284ed0014ee4b9a6a68386be1a4c08a4913ae272de89199cc6861639181900360200190a150600080546001600160a01b0383166001600160a01b03199091161790556001919050565b6000546001600160a01b03169056fea265627a7a72315820563e44f0285c7cd273e5b2687e2a2fee526dde9ee72e820da17d4ca626c4a3be64736f6c634300050c0032",
  "source": "pragma solidity ^0.5.0;\n\ncontract Ownable {\n    \n    address private owner; // **implemented** made as payable to replace owner in Splitter contract\n  \n    event OwnershipTransferred(address newOwner); // Added event\n    \n    constructor() public\n    {\n        owner = msg.sender;\n    }\n    \n    modifier onlyOwner() \n    {\n        require(msg.sender == owner, \"Error: msg.sender must be owner\");\n        _;\n    }\n    \n    function getOwner() \n    public\n    view \n    returns (address _owner) {\n        return owner;\n    }\n    \n    function\n    setOwner(address newOwner) // **implemented** declared input paramater as payable\n    public\n    onlyOwner\n    returns(bool success)\n    {\n        require(newOwner != address(0x0), \"Error: Address cannot be 0\");\n        emit OwnershipTransferred(newOwner); //<-***implemented*** added emit\n        owner = newOwner;\n        return true; \n    }\n\n}\n",
  "sourcePath": "/home/santito/Desktop/Final-Splitter/contracts/Ownable.sol",
  "compiler": {
    "name": "solc",
    "version": "0.5.12+commit.7709ece9.Emscripten.clang"
  },
  "schemaVersion": "3.0.19",
  "updatedAt": "2020-02-06T20:53:30.994Z",
  "devdoc": {
    "methods": {}
  },
  "userdoc": {
    "methods": {}
  }
}