{
  "contractName": "Splitter",
  "abi": [
    {
      "inputs": [],
      "payable": false,
      "stateMutability": "nonpayable",
      "type": "constructor"
    },
    {
      "anonymous": false,
      "inputs": [
        {
          "indexed": false,
          "internalType": "address",
          "name": "_killer",
          "type": "address"
        }
      ],
      "name": "LogKilled",
      "type": "event"
    },
    {
      "anonymous": false,
      "inputs": [
        {
          "indexed": true,
          "internalType": "address",
          "name": "_owner",
          "type": "address"
        },
        {
          "indexed": true,
          "internalType": "uint256",
          "name": "_contractAmount",
          "type": "uint256"
        }
      ],
      "name": "LogKilledWithdraw",
      "type": "event"
    },
    {
      "anonymous": false,
      "inputs": [
        {
          "indexed": false,
          "internalType": "address",
          "name": "_owner",
          "type": "address"
        }
      ],
      "name": "LogResumed",
      "type": "event"
    },
    {
      "anonymous": false,
      "inputs": [
        {
          "indexed": true,
          "internalType": "address",
          "name": "sender",
          "type": "address"
        }
      ],
      "name": "LogSplit",
      "type": "event"
    },
    {
      "anonymous": false,
      "inputs": [
        {
          "indexed": false,
          "internalType": "address",
          "name": "_owner",
          "type": "address"
        }
      ],
      "name": "LogStopped",
      "type": "event"
    },
    {
      "anonymous": false,
      "inputs": [
        {
          "indexed": true,
          "internalType": "address",
          "name": "_withdrawer",
          "type": "address"
        },
        {
          "indexed": true,
          "internalType": "uint256",
          "name": "_withdrawAmount",
          "type": "uint256"
        }
      ],
      "name": "LogWithdrawCalled",
      "type": "event"
    },
    {
      "anonymous": false,
      "inputs": [
        {
          "indexed": false,
          "internalType": "address",
          "name": "newOwner",
          "type": "address"
        }
      ],
      "name": "OwnershipTransferred",
      "type": "event"
    },
    {
      "constant": true,
      "inputs": [
        {
          "internalType": "address",
          "name": "",
          "type": "address"
        }
      ],
      "name": "balances",
      "outputs": [
        {
          "internalType": "uint256",
          "name": "",
          "type": "uint256"
        }
      ],
      "payable": false,
      "stateMutability": "view",
      "type": "function"
    },
    {
      "constant": true,
      "inputs": [],
      "name": "getOwner",
      "outputs": [
        {
          "internalType": "address",
          "name": "_owner",
          "type": "address"
        }
      ],
      "payable": false,
      "stateMutability": "view",
      "type": "function"
    },
    {
      "constant": false,
      "inputs": [],
      "name": "kill",
      "outputs": [],
      "payable": false,
      "stateMutability": "nonpayable",
      "type": "function"
    },
    {
      "constant": false,
      "inputs": [],
      "name": "resume",
      "outputs": [],
      "payable": false,
      "stateMutability": "nonpayable",
      "type": "function"
    },
    {
      "constant": false,
      "inputs": [
        {
          "internalType": "address",
          "name": "newOwner",
          "type": "address"
        }
      ],
      "name": "setOwner",
      "outputs": [
        {
          "internalType": "bool",
          "name": "success",
          "type": "bool"
        }
      ],
      "payable": false,
      "stateMutability": "nonpayable",
      "type": "function"
    },
    {
      "constant": false,
      "inputs": [],
      "name": "stop",
      "outputs": [],
      "payable": false,
      "stateMutability": "nonpayable",
      "type": "function"
    },
    {
      "constant": false,
      "inputs": [
        {
          "internalType": "address",
          "name": "recipient1",
          "type": "address"
        },
        {
          "internalType": "address",
          "name": "recipient2",
          "type": "address"
        }
      ],
      "name": "split",
      "outputs": [],
      "payable": true,
      "stateMutability": "payable",
      "type": "function"
    },
    {
      "constant": false,
      "inputs": [
        {
          "internalType": "uint256",
          "name": "withdrawAmount",
          "type": "uint256"
        }
      ],
      "name": "withdraw",
      "outputs": [],
      "payable": false,
      "stateMutability": "nonpayable",
      "type": "function"
    },
    {
      "constant": false,
      "inputs": [],
      "name": "withdrawWhenKilled",
      "outputs": [],
      "payable": false,
      "stateMutability": "nonpayable",
      "type": "function"
    }
  ],
  "bytecode": "0x608060405234801561001057600080fd5b506000805461ffff60a01b196001600160a01b03199091163317169055610fb58061003c6000396000f3fe6080604052600436106100865760003560e01c806327e235e31161005957806327e235e31461012c5780632e1a7d4d1461017157806341c0e1b51461019b578063893d20e8146101b0578063adfa63b4146101e157610086565b8063046f7da21461008b57806307da68f5146100a25780630f2c9329146100b757806313af4035146100e5575b600080fd5b34801561009757600080fd5b506100a06101f6565b005b3480156100ae57600080fd5b506100a061032b565b6100a0600480360360408110156100cd57600080fd5b506001600160a01b0381358116916020013516610467565b3480156100f157600080fd5b506101186004803603602081101561010857600080fd5b50356001600160a01b03166106fe565b604080519115158252519081900360200190f35b34801561013857600080fd5b5061015f6004803603602081101561014f57600080fd5b50356001600160a01b0316610808565b60408051918252519081900360200190f35b34801561017d57600080fd5b506100a06004803603602081101561019457600080fd5b503561081a565b3480156101a757600080fd5b506100a0610a58565b3480156101bc57600080fd5b506101c5610b93565b604080516001600160a01b039092168252519081900360200190f35b3480156101ed57600080fd5b506100a0610ba2565b6000546001600160a01b03163314610243576040805162461bcd60e51b815260206004820152601f6024820152600080516020610f61833981519152604482015290519081900360640190fd5b600054600160a81b900460ff1615610295576040805162461bcd60e51b815260206004820152601060248201526f10dbdb9d1c9858dd081a5cc81919585960821b604482015290519081900360640190fd5b600054600160a01b900460ff166102e9576040805162461bcd60e51b8152602060048201526013602482015272436f6e74726163742069732072756e6e696e6760681b604482015290519081900360640190fd5b6000805460ff60a01b191690556040805133815290517f29560ba70e3537fccc61029db8de08e30408a3f131625765c51e3e972a7867ad9181900360200190a1565b6000546001600160a01b03163314610378576040805162461bcd60e51b815260206004820152601f6024820152600080516020610f61833981519152604482015290519081900360640190fd5b600054600160a81b900460ff16156103ca576040805162461bcd60e51b815260206004820152601060248201526f10dbdb9d1c9858dd081a5cc81919585960821b604482015290519081900360640190fd5b600054600160a01b900460ff161561041f576040805162461bcd60e51b815260206004820152601360248201527221b7b73a3930b1ba1034b9903830bab9b2b21760691b604482015290519081900360640190fd5b6000805460ff60a01b1916600160a01b1790556040805133815290517fae2ff8b88a09be6cc9de7aa5e8efc037af3dfdb611a1217f8c70fc50975b8a809181900360200190a1565b600054600160a01b900460ff16156104bc576040805162461bcd60e51b815260206004820152601360248201527221b7b73a3930b1ba1034b9903830bab9b2b21760691b604482015290519081900360640190fd5b600054600160a81b900460ff161561050e576040805162461bcd60e51b815260206004820152601060248201526f10dbdb9d1c9858dd081a5cc81919585960821b604482015290519081900360640190fd5b6001600160a01b0382161580159061052e57506001600160a01b03811615155b61057f576040805162461bcd60e51b815260206004820152601a60248201527f4572726f723a20416464726573732063616e6e6f742062652030000000000000604482015290519081900360640190fd5b600034116105d4576040805162461bcd60e51b815260206004820152601c60248201527f4572726f723a2056616c75652063616e206e6f7420657175616c203000000000604482015290519081900360640190fd5b806001600160a01b0316826001600160a01b031614156105f357600080fd5b60023406156106415761060d34600163ffffffff610d5d16565b50336000908152600160208190526040909120546106309163ffffffff610da616565b336000908152600160205260409020555b600061065434600263ffffffff610e0016565b6001600160a01b038416600090815260016020526040902054909150610680908263ffffffff610da616565b6001600160a01b0380851660009081526001602052604080822093909355908416815220546106b5908263ffffffff610da616565b6001600160a01b03831660009081526001602052604080822092909255905133917f96baf86b14f625898f9998606dceab58c61c8e3803ae5c0a1ff89c225b3db8d391a2505050565b600080546001600160a01b0316331461074c576040805162461bcd60e51b815260206004820152601f6024820152600080516020610f61833981519152604482015290519081900360640190fd5b6001600160a01b0382166107a7576040805162461bcd60e51b815260206004820152601a60248201527f4572726f723a20416464726573732063616e6e6f742062652030000000000000604482015290519081900360640190fd5b604080516001600160a01b038416815290517f04dba622d284ed0014ee4b9a6a68386be1a4c08a4913ae272de89199cc6861639181900360200190a150600080546001600160a01b0383166001600160a01b03199091161790556001919050565b60016020526000908152604090205481565b600054600160a01b900460ff161561086f576040805162461bcd60e51b815260206004820152601360248201527221b7b73a3930b1ba1034b9903830bab9b2b21760691b604482015290519081900360640190fd5b600054600160a81b900460ff16156108c1576040805162461bcd60e51b815260206004820152601060248201526f10dbdb9d1c9858dd081a5cc81919585960821b604482015290519081900360640190fd5b336000908152600160205260409020548161090d5760405162461bcd60e51b8152600401808060200182810382526022815260200180610f3f6022913960400191505060405180910390fd5b33600090815260016020526040902054821115610971576040805162461bcd60e51b815260206004820152601b60248201527f4572726f723a20496e73756666696369656e742062616c616e63650000000000604482015290519081900360640190fd5b610981818363ffffffff610d5d16565b3360008181526001602052604080822093909355915184908381818185875af1925050503d80600081146109d1576040519150601f19603f3d011682016040523d82523d6000602084013e6109d6565b606091505b5050905080610a26576040805162461bcd60e51b815260206004820152601760248201527622b93937b91d102a3930b739b332b9103330b4b632b21760491b604482015290519081900360640190fd5b604051839033907fc0ec577e2001163ce8b6dd5d332143f4a44b2f126358d4d3b2238dfaabc601a890600090a3505050565b6000546001600160a01b03163314610aa5576040805162461bcd60e51b815260206004820152601f6024820152600080516020610f61833981519152604482015290519081900360640190fd5b600054600160a81b900460ff1615610af7576040805162461bcd60e51b815260206004820152601060248201526f10dbdb9d1c9858dd081a5cc81919585960821b604482015290519081900360640190fd5b600054600160a01b900460ff16610b4b576040805162461bcd60e51b8152602060048201526013602482015272436f6e74726163742069732072756e6e696e6760681b604482015290519081900360640190fd5b6000805460ff60a81b1916600160a81b1790556040805133815290517fdd1d1672156846fdc9d6e65d5701535f177a41834051f5f7328be7f4252bcb319181900360200190a1565b6000546001600160a01b031690565b600054600160a81b900460ff16610bf4576040805162461bcd60e51b8152602060048201526011602482015270436f6e747261637420697320616c69766560781b604482015290519081900360640190fd5b6000546001600160a01b03163314610c41576040805162461bcd60e51b815260206004820152601f6024820152600080516020610f61833981519152604482015290519081900360640190fd5b3031610c94576040805162461bcd60e51b815260206004820152601c60248201527f4572726f723a2054686520636f6e747261637420697320656d70747900000000604482015290519081900360640190fd5b60405160009033903031908381818185875af1925050503d8060008114610cd7576040519150601f19603f3d011682016040523d82523d6000602084013e610cdc565b606091505b5050905080610d2c576040805162461bcd60e51b815260206004820152601760248201527622b93937b91d102a3930b739b332b9103330b4b632b21760491b604482015290519081900360640190fd5b60405130319033907f528177d13e940a4046f20556c874626926405065674cbfe290eb1aae6ea44e1590600090a350565b6000610d9f83836040518060400160405280601e81526020017f536166654d6174683a207375627472616374696f6e206f766572666c6f770000815250610e42565b9392505050565b600082820183811015610d9f576040805162461bcd60e51b815260206004820152601b60248201527f536166654d6174683a206164646974696f6e206f766572666c6f770000000000604482015290519081900360640190fd5b6000610d9f83836040518060400160405280601a81526020017f536166654d6174683a206469766973696f6e206279207a65726f000000000000815250610ed9565b60008184841115610ed15760405162461bcd60e51b81526004018080602001828103825283818151815260200191508051906020019080838360005b83811015610e96578181015183820152602001610e7e565b50505050905090810190601f168015610ec35780820380516001836020036101000a031916815260200191505b509250505060405180910390fd5b505050900390565b60008183610f285760405162461bcd60e51b8152602060048201818152835160248401528351909283926044909101919085019080838360008315610e96578181015183820152602001610e7e565b506000838581610f3457fe5b049594505050505056fe4572726f723a20576974686472617720616d6f756e74206d757374206265203e20304572726f723a206d73672e73656e646572206d757374206265206f776e657200a265627a7a7231582042dee04b25e519be694474f45b7563ff98e6f894f74f7d489bcfbbf41eaa167664736f6c634300050c0032",
  "source": "pragma solidity ^0.5.0;\n\nimport \"./Stoppable.sol\";\nimport \"openzeppelin-solidity/contracts/math/SafeMath.sol\";\n\ncontract Splitter is Stoppable {\n\n    using SafeMath for uint256;\n\n    event LogSplit(address indexed sender);\n\n    event LogWithdrawCalled(address indexed _withdrawer, uint indexed _withdrawAmount);\n\n    event LogKilledWithdraw(address indexed _owner, uint indexed _contractAmount);\n\n    mapping(address => uint256) public balances;\n\n    constructor()\n    public\n    {\n\n    }\n\n    function split(address recipient1, address recipient2)\n    public\n    payable\n    whenRunning\n    whenAlive\n    {\n      require(recipient1 != address(0x0) && recipient2 != address(0x0), \"Error: Address cannot be 0\");\n      require(msg.value > 0, \"Error: Value can not equal 0\");\n      require(recipient1 != recipient2);\n\n        if(msg.value % 2 != 0){\n            msg.value.sub(1);\n            balances[msg.sender] = balances[msg.sender].add(1); // Used SafeMath\n        }\n\n        uint256 splitAmount = msg.value.div(2);\n        balances[recipient1] = balances[recipient1].add(splitAmount);\n        balances[recipient2] = balances[recipient2].add(splitAmount); //\n        emit LogSplit(msg.sender);\n    }\n\n\n    function withdraw(uint withdrawAmount)\n    whenRunning\n    whenAlive\n    public\n    {   uint balance = balances[msg.sender];\n        require(withdrawAmount != 0, \"Error: Withdraw amount must be > 0\");\n        require(withdrawAmount <= balances[msg.sender], \"Error: Insufficient balance\");\n        balances[msg.sender] = balance.sub(withdrawAmount);\n        (bool success, ) = msg.sender.call.value(withdrawAmount)(\"\");\n        require(success, \"Error: Transfer failed.\");\n        emit LogWithdrawCalled(msg.sender, withdrawAmount);\n    }\n\n    function withdrawWhenKilled()\n    whenKilled\n    onlyOwner\n    public\n    {\n        require(address(this).balance > 0, \"Error: The contract is empty\");\n        (bool success, ) = msg.sender.call.value(address(this).balance)(\"\");\n        require(success, \"Error: Transfer failed.\");\n        emit LogKilledWithdraw(msg.sender, address(this).balance);\n    }\n\n    // function getContractBalance()\n    // whenKilled\n    // onlyOwner\n    // view\n    // public\n    // returns (uint256)\n    // {\n    //     return address(this).balance;\n    // }\n}\n",
  "sourcePath": "/home/santito/Desktop/Final-Splitter/contracts/Splitter.sol",
  "compiler": {
    "name": "solc",
    "version": "0.5.12+commit.7709ece9.Emscripten.clang"
  },
  "schemaVersion": "3.0.19",
  "updatedAt": "2020-02-06T20:54:18.756Z",
  "networkType": "ethereum",
  "devdoc": {
    "methods": {}
  },
  "userdoc": {
    "methods": {}
  }
}